:02000002F0000C
:1040000000000420DDA80F0005A90F0007A90F007C
:1040100009A90F000BA90F000DA90F000000000057
:10402000000000000000000000000000B9450F0083
:1040300011A90F000000000013A90F00394E0F0056
:104040004D4F0F0017A90F0017A90F0017A90F0058
:1040500017A90F0017A90F0017A90F0017A90F0024
:1040600017A90F0017A90F0017A90F0017A90F0014
:1040700017A90F0017A90F0017A90F0017A90F0004
:1040800017A90F0085730F0017A90F0017A90F00BC
:1040900041740F0017A90F00C54B0F0017A90F009F
:1040A00017A90F0017A90F0017A90F0017A90F00D4
:1040B00017A90F0017A90F00000000000000000062
:1040C00017A90F0017A90F0017A90F0017A90F00B4
:1040D00017A90F0017A90F0017A90F00E9840F00F7
:1040E00017A90F0017A90F0017A90F000000000063
:1040F0000000000017A90F000000000017A90F0022
:1041000000000000000000000000000000000000AF
:10411000000000000000000000000000000000009F
:10412000000000000000000000000000000000008F
:10413000000000000000000000000000000000007F
:10414000000000000000000000000000000000006F
:10415000000000000000000000000000000000005F
:10416000000000000000000000000000000000004F
:10417000000000000000000000000000000000003F
:10418000000000000000000000000000000000002F
:10419000000000000000000000000000000000001F
:1041A000000000000000000000000000000000000F
:1041B00000000000000000000000000000000000FF
:1041C00000000000000000000000000000000000EF
:1041D00000000000000000000000000000000000DF
:1041E00000000000000000000000000000000000CF
:1041F00000000000000000000000000000000000BF
:1042000010B5054C237833B9044B13B10448AFF310
:1042100000800123237010BD1C86002000000000D8
:1042200068B80F0008B5034B1BB103490348AFF34F
:10423000008008BD000000002086002068B80F0044
:10424000154B002B08BF134B9D46A3F5803A002168
:104250008B460F461348144A121A00F05FF80F4BB2
:10426000002B00D098470E4B002B00D09847002021
:10427000002104000D000D48002802D00C4800F079
:104280000DF900F027F82000290000F097FA00F05F
:1042900011F800BF0000080000000420000000002A
:1042A000000000001C860020FCCD00209D440F0073
:1042B000A9440F0008B50021044600F089F8044B1A
:1042C0001868C36B03B19847204600F04DF900BF52
:1042D00084B50F0070B50D4E0D4D761BB61006D08F
:1042E000002455F8043B01349847A642F9D1094E01
:1042F000094D761B07F03AF9B61006D0002455F8A0
:10430000043B01349847A642F9D170BD10860020C5
:10431000108600201886002010860020F0B4860742
:1043200046D0541E002A3CD0CAB2034601E0013CEC
:1043300037D303F8012B9D07F9D1032C2AD9CDB22D
:1043400045EA05250F2C45EA054534D9A4F11002AC
:1043500022F00F0C03F120071609674403F1100245
:1043600042E9045542E902551032BA42F8D1721CB2
:1043700014F00C0F03EB021204F00F0613D0331FDE
:1043800023F003030433134442F8045B9342FBD14C
:1043900006F003042CB1CAB21C4403F8012B9C4262
:1043A000FBD1F0BC704734461346002CF3D1F8E73C
:1043B00014460346C1E71A462646E0E7024B13B10E
:1043C000024800F06BB8704700000000A9440F00DD
:1043D0002DE9F84F2F4B2DED028B834618680F46C1
:1043E00000F078F82C4BD3F80080D8F84861AEB1D3
:1043F00008EE10BA4FF001094FF0000A7468651E0C
:104400000CD4013406EB840487B1D4F80031BB42EC
:104410000CD0013D6B1CA4F10404F5D1BDEC028B62
:104420001C4B1868BDE8F84F00F056B87368226856
:10443000013BAB420CBF7560C4F800A0002AE8D075
:10444000D6F88801D6F804B009FA05F101420BD17B
:10445000904772685A4513D1D8F84831B342D8D042
:104460001E46002ECAD1D9E7D6F88C0101420CD1E4
:10447000D4F8801018EE100A904772685A45EBD0B5
:10448000D8F84861002EB9D1C8E7D4F88000904729
:10449000DFE700BF3084002084B50F000023014611
:1044A0001A46184600F01AB838B5084B084D5B1B81
:1044B0009C1007D0043B1D44013C55F80439984733
:1044C000002CF9D1BDE8384007F056B81C86002012
:1044D00018860020704700BF704700BF2DE9F047E5
:1044E000DFF880A00646DAF8000098460F469146AD
:1044F000FFF7F0FF1A4B1B68D3F8484124B36568F7
:104500001F2D26DC5EB9AB1C0135DAF800006560B2
:1045100044F82370FFF7E0FF0020BDE8F08704EBCC
:1045200085030121C3F88890D4F88821A9400A4363
:10453000022EC4F88821C3F80881E4D1D4F88C3164
:104540001943C4F88C11DEE703F5A674C3F848419B
:10455000D5E7DAF80000FFF7BFFF4FF0FF30DCE7E8
:1045600084B50F0030840020FEE700BF38B50D464B
:10457000E8B90968C9B10F4CA1420BD0631A3B2BB3
:1045800011D93C22204606F0D5F903E0CA5CE2547A
:10459000013BFBD2074800223C2103F057FA0023DD
:1045A000A0872B6038BD3D23F2E70E23F9E70123F6
:1045B000F7E700BF807F0020074A6FF002039E45A7
:1045C00002D1EFF3098101E0EFF308818869A0F1DE
:1045D00002000078104700BF6D450F0038B5054652
:1045E000A8B10D4C00223C21204603F02FFAA38FE6
:1045F00083420ED1224604F13C0152F8040B45F8E7
:10460000040B8A42F9D10133A387002038BD0E2064
:10461000FCE70B20FAE700BF807F00200B2970B574
:104620000446154608462FD92389053304EB430178
:104630002044431ADAB2012A26D9814224D81348E9
:1046400006F078F92388522B06D1AB0711D0628887
:104650004CF668639A420CD00F2014E034F8022B19
:10466000824204D02E88964203F1010308D1002033
:1046700009E0218900230A344FF6FE7043F20C054D
:104680009942EBD80B2070BD0920FCE7388600204A
:1046900008B5002203F0DAF9044A5178137843EAA6
:1046A0000123984214BF0B20002008BD388600204B
:1046B00038B50C4C21684B1C054612D00A484FF403
:1046C000805206F029F948B115B1206800F0A2FC2B
:1046D000054920684FF4806200F0BCFC4FF0FF33C6
:1046E000236038BD34840020448600202DE9F04149
:1046F000DFF84480044624F47F651846D8F800307B
:1047000025F00F05AB420E46174609D0FFF7D0FF44
:104710000848C8F800504FF48052294606F00AF9BC
:104720000448C4F30B043A4631462044BDE8F04146
:1047300006F000B94486002034840020BFF34F8F78
:104740000549064BCA6802F4E0621343CB60BFF32D
:104750004F8F00BFFDE700BF00ED00E00400FA0549
:104760004BDF704710DF704711DF704713DF704772
:1047700018DF704760DF704769DF704761DF70479F
:1047800008B5034B1B68DB0700D500BEFFF7D6FF5B
:10479000F0ED00E0014B1878704700BF459600200F
:1047A0001FB50023CDE9013303936846022300932C
:1047B000FFF7DEFF05B05DF804FB00002DE9F04FC8
:1047C0004FF0804389B0D3F81C85D3F81C25A8F19D
:1047D000B104D4F1000A4AEB040AB12A7CD0D3F820
:1047E0001C05A838D0F1000B4BEB000B484C0BF02C
:1047F000010323704FF08043D3F81C65D3F81C9558
:10480000BBF1000F0ED14E2E0CD0B9F1570F09D0CD
:10481000404A12681168404A91420AD1D3F80034E4
:10482000D90706D54FF080430022C3F81C254FF06E
:10483000010B3A4B40F20142C3F8402500F04CFA1C
:1048400000F076FE002000F0FFFA00F0F3FE78B1F1
:10485000052000F0F9FA00F0FFFE08B103F0AEF811
:1048600000F020FF08B103F0A9F8062000F0ECFAF0
:10487000BBF1000F03D1122000F0BEF9834623786C
:104880006BBB122000F0B8F910B1132000F0B4F99E
:1048900000F00100207000F07BFD214D214F034608
:1048A00040B1BBF1000F05D11A4A126811681E4AC7
:1048B00091424BD043F204021268AA4209BF43F26C
:1048C00008024FF49052126802F500721268BA4260
:1048D0002CD14FF0010B39E04FF0010B86E701209E
:1048E000D6E79B4632E04FF480030B6078E002206D
:1048F00000F0AAFAA6F14E035842584103F0F8FD21
:10490000C2E000221146D8E003F042FEE0E000BF22
:104910004596002038840020D51A5A0000A0004097
:10492000DBE5B1517CB0EE877E67E54EBBF1000F51
:10493000CFD1002BD5D0744A74491268019311600D
:10494000734A744842F001029047019B6E4843F25B
:10495000040201681268AA420ABF43F208024FF437
:1049600090521268019008BF02F500721268BA42B4
:104970000CBF694A00220A60BBF1000F02D1002B74
:1049800040F0A68094F800B0BBF1000FAFD0082033
:1049900000F05AFAB8F1B10F01D0FFF701FF4FF460
:1049A0007420FFF7E3FE08B103F008F85B4B5C49A5
:1049B0001868039003A8FFF7D5FE08B102F0FEFFC8
:1049C000584991F816335A09EC231341DA0707D5F1
:1049D000554B9A68002A86D01A6842F480021A6001
:1049E000524B04930C22002105A8FFF797FC40F2DC
:1049F0000113049A059305A94020FFF7BDFE08B1F5
:104A000002F0DCFF0C22002105A8FFF787FC9DF8CF
:104A10001430049A43F0010305A9A0208DF8143046
:104A2000FFF7AAFE08B102F0C9FF0C22002105A879
:104A3000FFF774FC01238DF81430049AF72305A9BD
:104A40002320ADF81630FFF797FE08B102F0B6FF4D
:104A50000C22002105A8FFF761FC01238DF814301A
:104A60008DF81630049A062305A92020ADF81830D9
:104A7000FFF782FE08B102F0A1FF04A8FFF77AFE5B
:104A800008B102F09BFFDA4643F2040320781B686A
:104A9000AB4209BF43F208034FF490531B6803F580
:104AA00000731B68BB4205D0B9F1570F02D04E2EE0
:104AB0007FF427AF012240F6B83100F051FD08B174
:104AC00002F07CFF2378002B3FF41EAFFFF74CFE73
:104AD00000F04CF900F05CFCA0B100F0ABFD88B92F
:104AE00043F204031B68AB4206D1BAF1000F01D1B7
:104AF000FFF756FEFFF738FE019B1B6800221A6085
:104B000000F06AFDFFF71AFE38840020D51A5A001B
:104B100090B50F000048E8017E67E54E88B50F00AC
:104B200081470F0000E100E02CCD00200080002034
:104B300010B5FEB04FF4FA730DF1020101A8ADF803
:104B40000230FFF71BFE044640B9BDF80430102BBD
:104B500007D0112B0CD001A801F036F820467EB00A
:104B600010BD054B01221A70072000F06DF9F2E725
:104B7000014B18700820F8E74496002013B501A8EF
:104B8000FFF7EEFD044660B9019802F0A5FA019B1B
:104B90000A2B09D0092B09D00B2B02D1012004F0DC
:104BA00057FA204602B010BD2046F8E70220F6E78B
:104BB00008B5FFF7BDFF0528FBD1FFF7DFFF05288C
:104BC000F7D108BD0021024A084602F061BE00BFCD
:104BD000B14B0F001F2884BF00F01F00044B054A93
:104BE00098BF4FF0A04300F5E07043F820207047D5
:104BF000000300500C0003001F288ABF064B4FF033
:104C0000A04300F01F00D3F8103523FA00F0C04392
:104C100000F00100704700BF0003005000234FF078
:104C2000FF328360C0F80035C0F86025C0F8642505
:104C3000C0F86825C0F86C2540F2FF32C0F8043592
:104C4000C0F80825C0F80C35C0F81035C0F8143588
:104C5000C0F82035C0F82435704700001B4B0022F7
:104C60001F2930B5C3F800258BBF01F01F030B4689
:104C7000174A4FF0A04203F5E074032542F8245090
:104C8000012404FA03F3C2F80C3500F5AC700F4BA5
:104C9000002243F82010FF21C3F804250220C3F8A6
:104CA00008150421C3F80C15C3F810050948C3F80A
:104CB0001425C3F82005C3F82415C3F82825C3F824
:104CC0002C25C3F80045C3F8102130BD00C00140B9
:104CD000000300503C9800204FF0804310B50122A3
:104CE0000024DA601220C3F818459A60FFF772FFBB
:104CF0001320FFF76FFF154B4FF4C85043F001032B
:104D000098472F212046FFF7A9FF114A1E210820AE
:104D100002F09AFD08B102F051FE02F0FBFC0D49D1
:104D20000D4BE02081F823001B684FF47A72B3FB2F
:104D3000F2F3013BB3F1807F07D2084A53600023AE
:104D400081F8230093600723136010BDA0B50F0006
:104D50004896002000ED00E03C84002010E000E0D8
:104D60000148FFF75BBF00BF00C00140164B0021A8
:104D700010B51960FFF7F4FF144B154C4FF40032D7
:104D8000C3F8802003F1C04303F53C534FF4803255
:104D9000C3F84823C3F8082301225A609A604FF0F1
:104DA00080430220DA600B461F2B1A46C6BF03F071
:104DB0001F0221464FF0A04102F5E0720133302B73
:104DC00041F82200F0D110BD10E000E000E100E069
:104DD00000030050074B23F81010074B00221A6005
:104DE00082B01B680193019B044B01221A6002B040
:104DF000704700BF3C98002010C1014008C001402E
:104E00000B4B1A680B4B1B68B3FBF2F102FB11331F
:104E1000B3EB520F88BFD31A4F2150085943B1FB4F
:104E2000F0F1C1F1FF0189B20020FFF7D3BF00BF4D
:104E30004498002038980020024A13680133136018
:104E4000FFF7DEBF389800201B4A1168082823D8D6
:104E5000DFE800F013051322221A1E242A00174B44
:104E600040F6B83018604FF47F4303F0103323F05E
:104E70008053994218BF13607047104B4FF49670DF
:104E800018604FF47F03F0E70C4B64221A60704700
:104E90000A4B40F6B83018600B46E6E7074B40F681
:104EA000B8301860FF23E0E7044B4FF496701860A9
:104EB0004FF0FF13D9E700BF489800204498002026
:104EC00000F1804382B01A68002A14BF012000203C
:104ED00004D000221A601B680193019B02B0704746
:104EE0000F4B1A78D2B902784FF08041C2F34002DA
:104EF000C1F88025027802F00102C1F87825094A3C
:104F00001168C90706D4E02182F800130121C2F814
:104F100080111160012204481A70704703487047DD
:104F200029CD002000E100E00000AD0B0C00AD0B2E
:104F3000014B02681A607047549800204FF080437C
:104F40004FF46072C3F804237047000010B54FF0AF
:104F50008043D3F80443620707D54FF48470FFF70A
:104F6000AFFF10B11E4B1B689847A30608D54FF43E
:104F70008A70FFF7A5FF18B11A4B00201B689847ED
:104F8000600608D54FF48C70FFF79AFF18B1154BE7
:104F900001201B689847210608D54FF48E70FFF753
:104FA0008FFF18B1104B00201B689847E20508D509
:104FB0004FF49070FFF784FF18B10B4B01201B6872
:104FC0009847A3050AD54FF49270FFF779FF28B1EF
:104FD000054BBDE810401B680220184710BD00BFFC
:104FE0004C980020509800205498002070B5084C30
:104FF0000023934200D170BD51F82350D4F80064CF
:10500000F607FBD540F82350BFF35F8F0133F0E77D
:1050100000E001404FF080531A69B0FBF2F302FB4D
:10502000130373B9084B0222C3F80425C3F808051B
:10503000D3F80024D207FBD500220448C3F8042586
:1050400070470348704700BF00E001400000AD0B0F
:105050000A00AD0B10B5054C0123C4F80435FFF769
:10506000C5FF0023C4F8043510BD00BF00E00140B7
:10507000BFF34F8F0549064BCA6802F4E062134341
:10508000CB60BFF34F8F00BFFDE700BF00ED00E036
:105090000400FA05064B1B68082B06D1054B1B685C
:1050A000032B02D8044AD05C70470020704700BF31
:1050B0003001001034010010A6B50F0008B5724B86
:1050C0001B68082B50D14FF080430022C3F80C21FD
:1050D000C3F81021C3F838254FF0805203F5404340
:1050E000D2F80414C3F82015D2F80814C3F8241514
:1050F000D2F80C14C3F82815D2F81014C3F82C15E4
:10510000D2F81414C3F83015D2F81814C3F83415B3
:10511000D2F81C14C3F84015D2F82014C3F8441573
:10512000D2F82414C3F84815D2F82814C3F84C1543
:10513000D2F82C14C3F85015D2F83014C3F8541513
:10514000D2F83414C3F86015D2F83814C3F86415D3
:10515000D2F83C14C3F86815D2F84014C3F86C15A3
:10516000D2F84424C3F87025FFF794FF10B1474BE1
:10517000474A1A60FFF78EFF18B1464BFB22C3F86F
:105180001825FFF787FF48B14349444B0A681B685D
:1051900022F00F0203F00F0313430B60FFF77AFFB7
:1051A00018B13F4B4FF400721A60374B1B68082B45
:1051B00009D14FF08043D3F80024D10744BF6FF0EA
:1051C0000102C3F80024374AD2F8883043F4700350
:1051D000C2F88830BFF34F8FBFF36F8F4FF01023AB
:1051E000D3F80C22D2071ED52F4B0122C3F8042579
:1051F000D3F80024002AFBD04FF01022D2F80C3252
:1052000023F00103C2F80C32274B1A46D3F80014DE
:105210000029FBD00021C3F80415D2F80034002B7C
:10522000FBD0FFF725FFD3F80022002A03DBD3F8D9
:105230000432002B23DA1C4B0122C3F80425D3F8D7
:105240000024002AFBD04FF010221221C2F80012D5
:10525000D3F80024002AFBD04FF010231222C3F809
:105260000422114B1A46D3F800140029FBD0002168
:10527000C3F80415D2F80034002BFBD0D1E70B4B58
:105280000B4A1A6008BD00BF300100108C56004068
:105290004881030000F00040E40E00405802001076
:1052A0004096024000ED00E000E001403C84002018
:1052B0000090D00313DF704718DF7047064B187853
:1052C000012803D1012904BF0221197012B110462F
:1052D00002F074BB704700BF8598002070B5124C77
:1052E000124D134ED4F800347BB1C4F80056C4F804
:1052F0000456C4F80856C4F80C56C4F81056C4F83E
:105300001456C4F81856C4F81C5602F027FB05F0D2
:10531000DFFA20B104F0BAF9002004F0BFFD3378C1
:10532000023B022BDED870BD000001403546526EB4
:105330008598002008B5FFF72DFA88B111481C2187
:1053400001F062FF08B102F039FB0F490D4800235C
:105350001C2201F049FF98B1BDE8084002F02EBBC5
:105360004FF47F20FFF756FE072207494FF47F20B6
:10537000FFF770FE054B1A78012A04BF02221A704B
:1053800008BD00BF7C9800208898002085980020E8
:1053900013B543F2040301A81A68124B9A420ABFDC
:1053A00043F208034FF480541C6800F0A9F9236805
:1053B000013302D16368013311D0019B1A88012A9D
:1053C0000DD1588820B199680022204602F03EFB9A
:1053D000019B5B881B1A5842584102B010BD002047
:1053E000FBE700BFDBE5B15184B02DE9F34108AC28
:1053F00084E80F009DF82040BDF822800B9D01A895
:10540000DDE9097600F07CF954B9384B0122FF211F
:10541000A3F802809D601A809980354B1A7012E0C3
:10542000012C17D1314BBA192A449A60A5221A804F
:10543000FF229A800C9AA3F80280C3E903765D618B
:105440009A612B4B1C70FFF775FF02B0BDE8F0416D
:1054500004B07047032C0FD1019A244B1188198096
:10546000518892689A60C3E90376AA2259809A808B
:105470005D611F4B0122D1E7022C15D1019A1B4B14
:105480001188A5290AD100229A60FF221A60FF2202
:105490009A800022C3E903225A61EAE71980518801
:1054A000926859809A60F2E7052C0ED1FFF772F9E5
:1054B00040B100F08DFD08B102F080FA0C4B0322E0
:1054C0001A70C2E700F012FAF5E7042C08D1074B76
:1054D00000229A60FF221A60019A92889A80B2E7AD
:1054E000062CB2D1024B0422EAE700BF88980020C4
:1054F0008598002000B50C4B1B7889B063B90B4B25
:105500001B786BB905238DF80C30079B009303AB18
:105510000FCBFFF769FF03E003F06AFF0028EED02E
:1055200009B05DF804FB00BF849800207898002043
:105530001FB50023CDE90233074B019301F020FE94
:1055400030B906494FF47F2301A84B6001F03AFEC1
:1055500005B05DF804FB00BFBD520F007C98002031
:1055600070B505460E460AB180F00102154B02F0F7
:1055700001021A7000F0A2FF044628B935B100F00C
:1055800083FC0446FFF7AAFE204670BDBEB10E4B59
:105590000E4A0F481D70294602F0ECF84FF4004403
:1055A0004FF4FA7000214FF47A720023E4FB0601F5
:1055B00005F052FE2A460146064802F0EDF800F0DA
:1055C00071F9DEE78498002078980020F5540F00E8
:1055D000ACB50F00589800201FB5144B4FF0FF32A8
:1055E000C3F88020C3F8802143F204031A68104BEB
:1055F0009A420ED143F208031C682046FFF75AFE78
:1056000010B14FF000531C60204600F09DF804B02C
:1056100010BD0023CDE902334FF4805406236846C1
:10562000CDE90034FFF748FEEAE700BF00E100E003
:10563000DBE5B15107B501A800F062F8019B1A88BB
:10564000A52A07D09888A0F1AA035842584103B070
:105650005DF804FB0120FAE710B501F05BF9A8B191
:105660000E4B0F4843F00103984701F0B9F808B119
:1056700002F0A4F901F04EF908B102F09FF901F02F
:10568000FBF8044638B102F099F904E001F01AF988
:1056900004460028E4D1204610BD00BFB0B50F007D
:1056A00000A8610000B589B003AB142200211846A0
:1056B000FEF734FE02228DF80C20002200920FC863
:1056C000FFF792FEFFF70AFE002009B05DF804FB29
:1056D00013B5044601A800F013F8019B1A88228034
:1056E0005A8862809A68A2609A88A280DA68E2602A
:1056F0001A6922615A6962619B69A36102B010BD97
:10570000014B0360704700BF00F00F00F0B5034687
:10571000186880F308885868FF2464B2EFF30585A1
:10572000002D01D1A64600472546064621273FBA4F
:10573000F0B40024002500260027F0B4F92040B280
:10574000004700BFF0BD00BFFFF7E0BF73B5002307
:105750000DF1020101A8ADF80230019302F0B6FD8F
:10576000F8B9019C25785DB3174B93F83020032AD4
:1057700028D00C2606FB00F29958E9B998189D50DC
:1057800093F830200132D2B283F83020BDF80230D5
:105790000E4A9B08013B043443608460084602F0D3
:1057A00077F8019B33B128B1184602F0ABFD08B180
:1057B00002F004F902B070BD01300428DAD1F0E73C
:1057C0000720EEE70420ECE7A498002015580F000E
:1057D00010B50C230B4A58431118135883B192F893
:1057E00030308C68013BDBB282F83030002313503C
:1057F000C1E90133201F02F085FD08B102F0DEF897
:10580000002010BDA4980020084609B102F0D6B8C7
:1058100070470000214B70B50122214E1A7096F896
:10582000303003B970BD1E4C0025236883B1013BA5
:10583000042B07D8DFE803F01C06120328002046DB
:1058400000F0D4FEE8B2FFF7C3FF08B102F0B6F8EB
:105850000135042D04F10C04E7D1E0E7A36863608F
:10586000204600F067FE0028ECD002F0A7F8E9E738
:10587000204600F04DFF00F029FF08B102F09EF82D
:105880000520FFF7E1FADDE700F06EFF00F08CFF86
:10589000BDE870400620FFF7D7BA00BF7898002017
:1058A000A498002008B50E4B002283F83020114642
:1058B0000132042AC3E90111196003F10C03F7D185
:1058C000084800F031FE02F099FC08B102F076F8C9
:1058D000054802F07FFC08B102F070F8002008BD16
:1058E000A498002009580F004D570F0008B500205C
:1058F000FFF76EFF0120FFF76BFF0220FFF768FF45
:105900000320FFF765FFBDE8084002F0BFBC006858
:1059100070476CDF70476DDF70476EDF70476FDF79
:10592000704772DF704773DF704774DF704776DF50
:10593000704777DF70477ADF70477CDF70477FDF23
:10594000704786DF70478FDF704790DF7047AFDFAB
:105950007047B0DF7047B1DF7047B2DF7047B5DF27
:10596000704764DF704766DF70470C2813D8DFE8A4
:1059700000F014121212121209120712120D0B006B
:10598000022070470320704704207047042914BF89
:10599000062005207047062070470120704702F05E
:1059A0000DB810B5044608460321FFF7DEFF0321BA
:1059B0000246204601F06AF918B1BDE8104001F036
:1059C000FDBF10BD0346032B10B50846144620D07A
:1059D000042B24D169B1124B18884FF6FF739842FB
:1059E0001DD01321FFF7A3FFC8B1BDE8104001F09F
:1059F000E5BF104602F086F808B101F0DFFF094B61
:105A00001B689C420BD101220321074801F03EF99B
:105A1000EAE70121FFF7A9FF01210246F5E710BDE2
:105A2000428400209899002048990020F8B50A4D3A
:105A3000AB889E181D2E14460DDC2F68FE1802F14F
:105A4000010C07F803C07070B01C04F073FFAB8842
:105A500002331A19AA80F8BDF8980020F0B54E4D0F
:105A6000297895B0002940F092804C4C0191102289
:105A70002046FEF753FC4A4B0199236018220EA8DA
:105A8000FEF74CFC01238DF8383028231093454B4A
:105A90001B78002B7DD0444B04AC03F11006186832
:105AA0005968224603C20833B3421446F7D13F4C2B
:105AB00010220DEB0201E01D04F02EFF002868D03B
:105AC0003B4801210460FFF728FF08B101F076FF91
:105AD000384B08AA03F1100C174618685968164687
:105AE00003C6083363453246F7D12068A2880C907C
:105AF0003148A379ADF83420002101228DF83630E9
:105B00000760FFF70CFF08B101F058FF03238DF881
:105B10004C3004238DF80E3041F23053ADF8103084
:105B2000264B08AA9B798DF812300DF10F0104A8BD
:105B3000FFF717FF012210460DF10E01FFF776FF68
:105B40001F4804F04EFF1E49C2B20920FFF76EFF46
:105B5000102208A90620FFF769FF104919480EAA6C
:105B6000FFF7DFFE08B101F029FF164C042221786F
:105B70000120FFF7DEFE08B101F020FF20780121AF
:105B8000FFF7D1FE08B101F019FF01232B7015B00A
:105B9000F0BD0623BEE700BF7C990020F8980020E6
:105BA000D898002044990020E6B50F0008990020FD
:105BB000949900200F99002078990020489900209E
:105BC000B6B50F0040840020F0B504460146B1B0E0
:105BD000A34801F08FF82388262B3BD80F2B04D83D
:105BE000012B00F0C58031B0F0BD103B162BFAD868
:105BF00001A252F823F000BF815C0F008F5C0F0000
:105C0000E75B0F00C15C0F00AD5D0F00E75B0F00AD
:105C1000E75B0F00E75B0F00E75B0F00E75B0F0040
:105C2000CB5D0F00E75B0F00E75B0F00E75B0F004A
:105C3000E75B0F00E75B0F00E75B0F003B5E0F00C9
:105C4000E75B0F002D5E0F00E75B0F00E75B0F00C7
:105C5000375D0F00513B9AB2052AC4D8052BC2D834
:105C600001A252F823F000BF7D5D0F00CB5D0F0055
:105C7000E75B0F00E75B0F004D5E0F00235D0F0039
:105C8000784BA2881A80784B00221A70ABE78023E9
:105C9000744CADF82430754B208832221A6010A95C
:105CA000012309AAFFF759FE08B101F087FE704BE6
:105CB0001B780BB9FFF7D2FE4FF6FF73238092E7F4
:105CC0006C4B03AC9A79186899888DF8222007905C
:105CD000DA1DADF8201017332646106851682546A6
:105CE00003C508329A422C46F7D1634B09AA03F147
:105CF0001807154618685968144603C40833BB4290
:105D00002246F7D11868206056485C4A008810ABDC
:105D10008521CDE91456FFF712FE00283FF463AF4A
:105D200081E0A379002B7FF45EAF4E4B13211888DE
:105D3000FFF7FDFDF1E7237A012B7FF454AF4A4BC7
:105D400000221A70494B19680139196069B910AB02
:105D500014221846FEF7E2FA05228DF84020149A24
:105D600000920FC8FFF740FB3DE7FFF777FE3AE7E9
:105D70003C4B00211888FFF7F6FDCEE7A379002BF6
:105D80003FF431AFA27B043A022A3FF62CAF022B3C
:105D900018BF01238DF840304FF4C173ADF8443083
:105DA000304B10A91888FFF7D4FDB6E7314A258A91
:105DB000518D02F1180000238D420CBF0146194697
:105DC0000732A088FFF7BDFDA7E7264B1C884FF6DA
:105DD000FF75AC4226D02A4B1B78EBB12949012331
:105DE00008222046FFF7B7FDE8B902460146022324
:105DF0002046FFF7B0FDB0B92A460C212046FFF738
:105E0000A6FD43F2020398423FF4EDAE08283FF4AA
:105E1000EAAE112881D1E6E61A4619462046FFF778
:105E20009AFD7AE7082001F0C9FDDCE60D4B00225F
:105E300018881146FFF789FD6FE70023ADF8403061
:105E4000084B10A91888FFF77EFDCCE6E188054BCA
:105E5000F729188828BFF721FFF781FD5DE700BF0C
:105E600048990020428400207C990020448400202E
:105E70008F99002008990020209900208A990020FD
:105E8000449900203C99002030B5434A4348002300
:105E90001370434A95B0137000F046FB01F0F2FD19
:105EA0000446002861D13F48FEF798FB00285FD1E7
:105EB0003D4B01221A7011233C488DF8043004F048
:105EC00090FD3A4982B201A8FFF737FD08B101F011
:105ED00075FD0822002104A8FEF720FA344A4FF08D
:105EE000C87304A8CDE90423FFF725FD08B101F02C
:105EF00065FD00210C2201A8FEF710FA0823ADF879
:105F000004302C4B02932C482C4B039301A900F036
:105F10003FFD08B101F052FD294D4022002104A8A7
:105F2000FEF7FCF9284604F05CFD0595254DADF81B
:105F30001000284604F055FD0795234DADF81800D4
:105F4000284604F04EFD1123ADF8300004A8ADF84A
:105F50004C300D9500F0E2FF1C4B30221A700722E6
:105F60005A7010229A70FFF779FD204615B030BDA7
:105F700004A8FFF7D0FC08B101F020FD9DF8113016
:105F800004A801338DF81130FFF7C3FC002892D02C
:105F900001F014FD8FE700BF8F990020C5590F0055
:105FA000899900200899002044990020B6B50F0077
:105FB0000800180021600F00489900209F590F0029
:105FC000BDB50F00C3B50F00CAB50F008A990020F8
:105FD00010B50F4B01221A700E4B18884FF6FF7345
:105FE000984207D01321FFF7A2FC08B101F0E6FCAC
:105FF000002010BD084C2278002AF9D0074B1878F1
:10600000FFF793FC08B101F0D9FC00232370EFE700
:106010008F990020428400207C9900204084002039
:10602000F0B50B7889B005460C46092B23D8DFE87C
:1060300013F02B00330042000A0018002400FF0078
:10604000080145000D0100F08FFB0421FFF78DFCD6
:1060500004210246284600F019FE60B101F0AEFCB2
:1060600009E0FFF7B5FF08B101F0A8FC00F09CFBC8
:1060700008B100F0A7FB09B0F0BDFFF7A9FF0028A9
:10608000F7D001F09BFCF4E7734B01221A704B68C8
:106090001A78724B1A70EEE76F4B02261E704B682F
:1060A0001B78012BE7D100F011FB3146FFF75DFCB7
:1060B00002463146CEE7684B0322EBE70520FEF7A8
:1060C000C3FE654B1E78022E2AD0032E50D0012E1F
:1060D000D1D104AB102218460021FEF71FF95F4A08
:1060E000237A12788DF81020002203920C2B4FF0A7
:1060F0000302CDE90120DCD163681846FFF707FCF5
:106100000590181DFFF703FC069003F10800FFF748
:10611000FEFB079001A800F00DFA0028ABD0C4E701
:10612000237A13F0030011D0C0F104021A44D2B252
:1061300019464FF0000C0E4601316768C9B2914212
:1061400007F806C0F7D11B1A043323720123049306
:1061500063680693237A04A89B08059300F0D8FA95
:10616000002888D00221FFF700FC0221024671E7D7
:10617000207A830702D0324631466BE7384E0190D1
:10618000314601F095FC014618B12846FFF709FC9D
:1061900071E76168019A306804F0CCFB019801F066
:1061A000EDFC01460028F0D101A9304601F0F6FCD3
:1061B00001460028E9D104230493019B9B08059321
:1061C00004A83368069300F011FA074640B9254A3F
:1061D000237A11680B441360234B32681A604AE734
:1061E00009281BD11F4B217A1A68114419601F4BD3
:1061F0001B78002B3FF43FAF1D4C2388013B9BB223
:106200002380002B7FF437AF284600F005FD08B14E
:1062100001F0D4FB174B1B8823802CE7306801F07A
:1062200071FC014610B12846FFF7BBFB3946ACE7CD
:106230000E4B01221A700F4A8B8813800C4A138070
:1062400019E70A4A002313700A4AF8E7054B196850
:1062500000F0A6FC01E700BF89990020909900207A
:106260009C9900208099002098990020889900200E
:10627000869900208499002018DF7047012973B5A2
:1062800014460D461A4608D0032912D014B32046EE
:1062900002B0BDE8704001F091BB0F4B1B78052B9D
:1062A000F4D10E4B1B68002BF0D0214604209847F8
:1062B000ECE7094E3378022BE8D1094B01925B6879
:1062C0009847064B35701B68002BDFD0019A21469A
:1062D0002846ECE702B070BDA8990020A0990020E4
:1062E000AC99002030B589B003AC142200212046BF
:1062F000FEF714F8094B1B88ADF80E30084BDB682D
:1063000006930025079B8DF80C50009394E80F002E
:10631000FFF76AF8284609B030BD00BFB8990020E1
:10632000049A002000B589B003238DF80C300A4B85
:106330001B88ADF80E30094B5A6804929A68DB68E6
:106340000693079B0093059203AB0FCBFFF74CF826
:10635000002009B05DF804FBB8990020049A0020E1
:1063600000B589B001238DF80C300F4B1B88ADF8B8
:106370000E3043F204031A680C4B9A420ABF43F2F0
:1063800008034FF480521A68094B596804919968C0
:10639000DB6806930591009203AB0FCBFFF724F85F
:1063A000002009B05DF804FBB8990020DBE5B1518D
:1063B000049A002000B589B003AB142200211846CE
:1063C000FDF7ACFF04228DF80C20002200920FC8CC
:1063D000FFF70AF809B05DF804FB00001B4BF7B5A6
:1063E0001B4C1C601B4B02221A70FEF7D3F91A4B90
:1063F00048B11968204600F007FFB8B103B0BDE806
:10640000F04001F0DBBA1B681D0BC3F30B0303B1B3
:106410000135124F002443F20406A54208D100239F
:106420000B4800931A460321FFF728FF03B0F0BD85
:106430003368BB420ABF43F208034FF48050186828
:1064400000EB0430FEF7E6FD0134E6E71C9A00207D
:10645000149A0020A8990020BC990020DBE5B151D6
:1064600070B50C4686B00321CDE9021005469608AA
:1064700002A8019304940596FFF7FEFEE0B1B4F57F
:10648000805F019B11D8012302A8CDE90235CDE937
:106490000446FFF7F1FE78B9032302A8CDE90235DF
:1064A000CDE90446FFF7E8FE06E01A46E11AE81ACD
:1064B000FFF7D6FF0028E6D006B070BD1FB5134B1E
:1064C0000193134B134900241C70134B01A81C802B
:1064D000CDE9024400F076FE104B10B11C7004B000
:1064E00010BD43F2040211680D4A914208BF43F205
:1064F000080208490CBF12684FF480524A60094AEA
:106500000021116001221A70E9E700BF7D620F00CF
:10651000009A0020149A0020B8990020A899002021
:10652000DBE5B151A4990020014B1860704700BF12
:10653000A099002010B54368224C0FCB84E80F00CF
:106540002278500701D5910735D16068830732D191
:10655000A36899072FD1E16811F003042BD11844E7
:1065600008441949B3F5204F086026D843F20403C4
:106570001968164B994209BF43F208034FF46C2384
:106580001B68C3F56D23984217D8114B1149196048
:1065900011495960D10709D5104A9A60104B1B78F0
:1065A000012B0CD1FFF71AFF204610BD92074CBFFC
:1065B0000C4A0D4AF1E70624F6E70C24F4E7082418
:1065C000F2E700BF049A0020BC990020DBE5B1513E
:1065D000AC990020DD630F00B5630F0061630F000D
:1065E000A899002025630F00E5620F002DE9FF4701
:1065F000002859D0816811F0030457D12E4B1B7825
:10660000052B55D1DFF8BC8042682C4ED8F80030FD
:10661000950003EB8203326893424746B24608D99D
:106620004FF0FF33C8F800300C24204604B0BDE81A
:10663000F0870391FEF7AEF8DFF88C90039948B12C
:10664000D8F80030D9F800002A4600F0CDFDE8B1B6
:106650000446EAE743F20403D8F800601A68184BCE
:106660009A420ABF43F208034FF48050186803911E
:1066700000232A463044FEF739F80399D9F8000080
:1066800000950B4600220121FFF7F8FD3B681D44F1
:10669000DAF800303D609D420CD1FEF77BF800280F
:1066A000C3D1FEF705F8C0E70E24BEE71024BCE70F
:1066B0000824BAE70924B8E7A8990020BC9900206B
:1066C000DBE5B151A49900201C9A002070B50B4B5A
:1066D0001D6885B90A4E3378042B0CD1094C0A4B3E
:1066E00021781A780948FDF799FF10B9052333700E
:1066F00070BD2570FCE70820FAE700BFA4990020D0
:10670000A8990020009A0020049A0020C099002037
:10671000F8B5114B1A78032A03D0042A03D00824B1
:1067200016E004221A700D4B1C68002CF7D10C4D9A
:1067300043682F789E0007EB8303402B0AD88168BB
:1067400008483246384404F0F5F82B7833442B706F
:106750002046F8BD0924FBE7A8990020A499002051
:10676000009A0020C099002010B50B4C2378052B0F
:1067700010D10A4B0A4A1B68116899420AD10623B4
:106780002370084B1B685868FDF782FF08B9072380
:10679000237010BD0820FCE7A8990020BC990020B8
:1067A000A49900201C9A0020044B1B78072B02D1CF
:1067B000034B9B6818470820704700BFA89900202A
:1067C000AC99002000B589B006238DF80C30079BEA
:1067D000009303AB0FCBFEF707FE09B05DF804FB97
:1067E000F0B58DB005A8FEF773FF089C002C3ED0D5
:1067F0000B9E04F58053B3422DD91E4BA6F5805550
:1068000003EA550543F208031B689C420BD8690054
:106810002B46A4EB450201F5805106EB4500FFF73E
:106820001FFE0DB0F0BD05F58053012701A8CDE98D
:106830000173CDE90337FFF71FFD0028F1D14FF4B5
:10684000805301A8CDE9023301970497FFF714FDA7
:106850000028E6D1DBE70123CDE90136A4084FF497
:10686000805301A803930494FFF706FDD9E720465F
:10687000D7E700BF00F0FFFF00B58DB005A8FEF719
:1068800027FF099890B1089B9BB943F204031A684B
:106890000B4B9A4210D143F208031B688008002278
:1068A000039001A8CDE90123FFF7E6FC0DB05DF8E8
:1068B00004FB0B9A1344F1E74FF48053EEE700BF5B
:1068C000DBE5B15100B58DB005A8FEF701FF0998D1
:1068D000A8B1089BB3B943F204031A680C4B9A425F
:1068E00013D143F208031B680393800803214FF47C
:1068F0007422049001A8CDE90112FFF7BDFC0DB090
:106900005DF804FB0B9A1344EEE74FF48053EBE77A
:10691000DBE5B15110B58CB005A8FEF7D9FE08989B
:10692000B8B10B9C00F58053A34214D943F208037D
:106930001B6898421BD80F4BA4F5805203EA520300
:106940005900A0EB430201F5805104EB4300FFF72F
:1069500087FD0CB010BD800803224FF480530490D3
:1069600001A8CDE901230394FFF786FCF1E70E208F
:10697000EFE700BF00F0FFFFA8DF7047AADF704716
:10698000ADDF7047AEDF7047B0DF704762DF704742
:106990002DE9F0470E4694B00546002800F0F98036
:1069A000002900F0F6804B68002B00F0F2804FF6D3
:1069B000FF730380784B04AA03F1100C1746186884
:1069C0005968144603C4083363452246F7D141F29F
:1069D00030530DF10A013846ADF80830FFF7D6FF05
:1069E0000446002840F0D1802A1D02A90120FFF7AB
:1069F000C3FF0446002840F0C8809DF80A30AB7100
:106A000001461C220DA8FDF789FC9DF834300E9438
:106A100043F004038DF8343001AFAB798DF80E30BC
:106A2000214641F2325303223846CDE91044CDE9E4
:106A30001244ADF80C30FDF771FC9DF8063023F0E0
:106A40001F0343F00303214614224FF4885A08A879
:106A50008DF80630ADF804A00DF10C08FDF75EFCD2
:106A60004FF01409A8880A9405F1080308AA0DA993
:106A70000C94CDE90887ADF82C90FFF77FFF044612
:106A8000002840F0828001461C220DA8FDF746FC3C
:106A90009DF834300E9423F0180343F018038DF85A
:106AA0003430AB798DF80E30214641F23153032258
:106AB0003846CDE91044CDE91244ADF80C30FDF76D
:106AC0002DFC9DF80630ADF804A023F01F0343F021
:106AD000130321464A4608A88DF80630FDF71EFC30
:106AE0001723ADF82C30A8880A9405F1100308AAE2
:106AF0000DA90C94CDE90887FFF740FF0446002854
:106B000043D101461C220DA8FDF708FC9DF8343046
:106B10000E9443F002038DF83430AB798DF80E30CB
:106B2000214641F2345303223846CDE91044CDE9E1
:106B30001244ADF80C30FDF7F1FB1123ADF8043031
:106B40009DF8063023F01F0343F0030321464A4615
:106B500008A88DF80630FDF7E1FB02230A93ADF893
:106B60002C30A8880C9605F1200308AA0DA9CDE9C0
:106B70000887FFF703FF044638B97368AB62B36850
:106B800003B1EB62054B01221A70204614B0BDE838
:106B9000F0870E24F9E700BFF6B50F00209A002019
:106BA00070B5054686B070B302884FF6FF739A42FF
:106BB0002BD0174B1B7843B3164C1022080AE170F8
:106BC000207121FA02F0090E072301266071A171DC
:106BD00002A800216370ADF806302270A670FDF7A0
:106BE0009DFB2B8AADF808300023ADF80C302888C7
:106BF0008DF80A600DF1060302A9CDE90434FFF710
:106C0000C1FE06B070BD0E20FBE70820F9E700BF0B
:106C1000209A0020219A002030B5044687B060B346
:106C200002884FF6FF739A4229D0164B1B7833B374
:106C3000154D11232B700B0A6970AB700B0C090EEC
:106C4000EB70297105230021102202A8ADF806304F
:106C5000FDF764FB238AADF8083001238DF80A3074
:106C60000023ADF80C3020880DF1060302A9CDE910
:106C70000435FFF787FE07B030BD0E20FBE7082084
:106C8000F9E700BF209A0020219A002030B5044681
:106C900087B038B300884FF6FF73984224D0134B67
:106CA0001B780BB3124D102369700321ADF8061049
:106CB000AA7000211A4602A82B70FDF72FFB238A29
:106CC000ADF8083001238DF80A300023ADF80C3000
:106CD00020880DF1060302A9CDE90435FFF752FE25
:106CE00007B030BD0E20FBE70820F9E7209A00200E
:106CF000219A002070B50D4688B0044650B149B1C4
:106D0000826A3AB10B88502B47D005D8102B41D05E
:106D1000112B52D008B070BD512BFBD18E79022EB1
:106D2000F8D10A89038A9A42F4D18B7B043B022B67
:106D3000F0D99DF816308DF8106043F001038DF8FE
:106D400016300B8AADF818304B8AADF81A3008228D
:106D500001F1140301A800210793FDF7DFFAA18ACE
:106D60002088019601AACDF808D0FFF709FE38B3B4
:106D7000E36A03B1984740F2FD132088ADF8143060
:106D800004A9FFF701FE0028C4D0E36A002BC1D09C
:106D90009847BFE78B882380BCE7C988038999425D
:106DA000B8D108238DF81030123535F8023C8DF833
:106DB0001830059504A99047ACE74FF6FF73EAE752
:106DC0009DF800302088DB07D5D5002604A9ADF852
:106DD0001460FFF7D9FD0028D7D1297D4B1E072B62
:106DE00040D8DFE803F004192226282A3D2C6B8ABC
:106DF0008DF80460012B05D8062201212046FFF7FB
:106E000045FFC0E7012315358DF80C300295A36AC4
:106E100001A9204698477DE76A8A01239A428DF8A6
:106E20000430F0D806220221E8E702238DF804306E
:106E3000EDE70323FAE70423F8E70523F6E76B8A77
:106E4000022B02D803220821D8E7AA7D6B7D43EAF2
:106E50000223002BADF808300CBF07230623E5E71B
:106E60000923E3E70322C9E7A8DF7047AADF7047D9
:106E70002DE9F04180468EB015461F460E4611B9E9
:106E8000084600F09BFD15B9284600F097FD1C222E
:106E90000DEB02000021FDF741FA9DF81C30ADF822
:106EA0000480002443F002038DF81C3021460123A6
:106EB000032268468DF80630CDE90A44CDE90C443A
:106EC0000894FDF72BFA3B788DF800307B788DF82D
:106ED00001309DF8023023F01F0343F002032146E6
:106EE000142202A88DF80230FDF718FA0A48CDF8EE
:106EF0000CD001AB029302AA149B0088ADF810508D
:106F000007A9ADF81240ADF814500696FFF7AEFF92
:106F10000EB0BDE8F08100BF489A002030B587B0C0
:106F200041F60A032B4AADF80C30044603A90120B0
:106F30008DF80E00FFF798FF0546D8B92288E2B910
:106F400022894AB1244B0093E16804F13C0342F6E4
:106F50002420FFF78DFFD8B9228C4AB11F4B009334
:106F6000616A04F13C0342F62620FFF781FF78B9FD
:106F7000A36B7BB9284607B030BD194B00936168FD
:106F800004F13C0342F62920FFF772FF0028D7D016
:106F90000546EFE71A788DF810205A888DF81120F1
:106FA000120A8DF812209A88DB888DF815301B0A9A
:106FB0008DF813208DF81630120A0A4B8DF8142024
:106FC0000093072204F13C0304A942F65020FFF786
:106FD0004FFFDDE7489A0020389A0020289A0020C9
:106FE000309A0020409A002029DF704728DF704740
:106FF00023B502460846C96843680093044B53F81A
:107000002150436910F80C1BA84702B020BD00BFF7
:107010004C9A002070B5194C2378182202FB0343C8
:107020001A795D69012A03D0032A1AD00F2070BD96
:10703000134AD86816689A689969A2EB0632B2F5C5
:10704000805F284401EB063100EB063034BF920824
:107050004FF48062FFF7C8FF0028E8D10123A37036
:10706000E5E74FF080531869054B1B6880B2B5FB0C
:10707000F0F01844FFF7BAFFEEE700BF5C9A00207B
:10708000549B002070B5134D6C780A2C1FD02E78BD
:107090003444E4B2092C84BF0A3CE4B2182606FB4F
:1070A0000454A261207103C9A360049BE360AB7820
:1070B00004F1100282E8030023B100206B78013351
:1070C0006B7070BDFFF7A6FF1128F7D1F5E704201C
:1070D000F7E700BF5C9A0020F8B527498B780C468B
:1070E0002BB1002602288E7002D003283AD0F8BDBA
:1070F0000D78224A182101FB054113688968013384
:10710000B1EB033F13601BD863781660013B6370DB
:107110006B1CDBB218270426092B17FB056188BFFF
:10712000A5F10903214400202370FFF761FF07FB4D
:1071300005430022C3E904621A719A609A61DA6019
:107140006378002BD3D0A378002BD0D1FFF762FF58
:107150000028CCD01128CAD02178182303FB014184
:10716000043105E00B78182202FB031104310D20D5
:10717000BDE8F840FFF73CBF5C9A0020549B00201C
:107180000C4B00221A600C4B0A201A809A700421C2
:107190000138C3E904121A719A609A61DA6003F146
:1071A0001803F5D1054B1860054BC3E90000C3E98E
:1071B00002007047549B00205C9A0020509B0020E6
:1071C0004C9A0020064A03461068042807D008603D
:1071D000411C11601A68034B43F8202000207047BF
:1071E000509B00204C9A002013B5CC180C43A407E8
:1071F00008D1009313460A4601460120FFF742FFDB
:1072000002B010BD1020FBE707B500220B4600922C
:1072100001460320FFF736FF03B05DF804FB0000D2
:10722000094A537891780133DBB2994208BF0023B1
:10723000117899421FBF03705078182303FB002078
:1072400014BF043000207047589B0020082910B557
:10725000044602D0002000F0B1FBD4E90030BDE8C4
:107260001040184773B5054600240DF107000E467F
:107270008DF8074000F0B0FB0DF10600FFF7D0FFDE
:1072800090B10670094B9DF8062045605A709DF834
:10729000070000F0C5FB24B9054B4FF48012C3F87A
:1072A0000021204602B070BD0424F0E7589B002066
:1072B00000E100E0204B21491A682F2300BF00BFE6
:1072C00000BF00BF00BF00BF00BF00BF8A422FD079
:1072D00000BF00BF00BF00BF00BF00BF00BF00BFB6
:1072E00000BF00BF00BF00BF00BF00BF00BF00BFA6
:1072F00000BF00BF00BF00BF00BF00BF00BF00BF96
:1073000000BF00BF00BF00BF00BF00BF00BF00BF85
:1073100000BF00BF00BF00BF00BF00BF00BF00BF75
:1073200000BF00BF00BF00BF00BF00BF00BF00BF65
:10733000013BC3D1704700BF3C8400200024F4000F
:107340000C4B0D484FF4003210B5C3F880200124D7
:107350004FF48033C0F84833C0F808334460FFF777
:10736000A9FF064B846000201860FFF7A3FF044BC1
:10737000187010BD00E100E000100140749C002076
:10738000659C00202DE9F3412549264B0025C1F8D5
:107390004051C1F84451C1F84851C1F84C51C1F8AD
:1073A0000051C1F804511B68002B34D0D1F80445BA
:1073B0001D49DFF888800968641A24F07F442F464D
:1073C0001968A14212D81A7CDE69641A0D4462B1B0
:1073D0005A691F7400929B690193424608216846CE
:1073E00000F056FA08B100F0E9FABEB90F4A104BA6
:1073F00011781B788B4205D10133DBB2022B08BF19
:107400000023137012780B4B43F822500A4B4FF4B1
:107410008012C3F8002102B0BDE8F0813346CFE707
:1074200000100140789C0020749C0020719C00207A
:10743000709C0020689C002000E100E04D720F006D
:107440002DE9F74FA84AA94913780978A84C994221
:107450003BD00133DBB2022B08BF00231370A549D8
:107460001278A54B0F6853F822003B1823F07F4396
:1074700000220B60236815461646944613B942B1A4
:10748000236006E0196881420DD902B12360091A10
:10749000196001262368DFF8689200930027BDB9C0
:1074A000DFF868A267E0401A0E44D968D3F81CE000
:1074B000C3F800C031B1BA1922F07F42C3E90121FB
:1074C000DD611D4673460122D8E700252E46E1E71F
:1074D0002846ED69874A43681268DFF834E2D0F83D
:1074E00008C0991A21F07F41714500F2AD806144D6
:1074F00001600122027422680023C0E90133C361E4
:10750000002A40F0AB802060C9E75A1C9AF80210AC
:10751000D4F800B0D2B291428AF8002004BF002211
:107520008AF80020182202FB03A31A799868022A1D
:1075300077D0032A00F08580012A1CD190F810C072
:10754000BCF1000F17D1D96841601A6982605A698D
:10755000C2609B698361694B1B78002B18BF614631
:107560004160B7E7904200F09E809046D269002AC1
:10757000F8D1002303749AF800309AF801209A4257
:10758000C3D1236827B9009A9A4201D1002E42D074
:10759000002B00F08580D3F80090594C554BD4F85F
:1075A00004651868574F351A3B7825F07F45033539
:1075B0009BB94FF48033C4F84433C4F80433524BBE
:1075C0004FF400324FF00108C3F880211A60C4F86C
:1075D0000080FFF76FFE87F80080A9452CBF484464
:1075E000401920F07F40C4F84005D4F804359B1BB7
:1075F00023F07F43801B033320F07F4083420AD96E
:10760000D4F80435C4F84035FFF754FE3E4B4FF430
:107610000032C3F80021394B00221A7003B0BDE8D4
:10762000F08F5A46D846A2E78BF81020DBF81CB042
:107630000123BBF1000FF7D1002B9CD0C4F800B0A0
:1076400099E700231A46F4E7D31A23F07F436345F2
:1076500034BFACEB0303002303604AE701681368FF
:1076600099421BD8591A1160C2614CE7A1EB0C0179
:10767000D3F81CC01A46BCF1000F0AD06346D3F8F9
:1076800000C08C45F2D3ACEB010CC3F800C09C46A3
:1076900013460160C0F81CC0D86100E71346EEE74E
:1076A000FFF74EFEB7E7404510D1DBF81C302360F2
:1076B00063B9DFF840E001920121C9F80810CEF863
:1076C00000300E4B1970FFF7F5FD019A1368D2696F
:1076D000C8F81C2012B111680B44136023685B4585
:1076E00018BF012745E700BF709C0020719C002057
:1076F000789C0020749C0020689C0020649C0020E2
:1077000000100140659C002000E100E0589B002033
:10771000FEFF7F0008B5FFF713FE104B00200B2281
:1077200018809A700E4B18600E4B18700E4B187024
:107730000E4B4FF48012E021C3F8802183F814131C
:107740001A6002F18042A2F56F22C2F8080583F8A0
:107750001113074BD2F804251A6008BD589B00206E
:10776000789C0020709C0020719C002000E100E0CB
:10777000749C0020074B9B784BB132B128B1036851
:10778000187C20B959745A61704707207047082047
:10779000704700BF589B00202DE9F743DFF8848035
:1077A00098F8023005460E461746ABB3A0B304293D
:1077B00030D9436983B3437C0024012B0DF10700CA
:1077C0000CBF8946A1468DF8074000F005F90DF180
:1077D0000600FFF725FDD8B1012303700F4B45606C
:1077E000D3F80435C0E90497C0E902369DF80630A5
:1077F00088F801309DF8070000F012F924B9084B11
:107800004FF48012C3F80021204603B0BDE8F08396
:107810000424EFE70724F7E70824F5E70010014008
:1078200000E100E0589B0020064A92783AB130B15E
:10783000426922B1002202740221FFF713BD082021
:10784000704700BF589B00204B1C30B5DB0004463E
:1078500012F003009BB20DD1074D2A601A44074B6A
:107860001A60074B1870074B1870074B1C80074BAA
:10787000198030BD0720FCE7849C0020809C0020FC
:107880007C9C00208C9C0020889C00208A9C0020EE
:107890002DE9F3472B4F3B888B4206460D46904619
:1078A0004BD300240DF107008DF8074000F094F849
:1078B000254B26481A78264B008893F800C084454B
:1078C0005FFA8CF138BF4C1CD2B238BFE4B2A2428E
:1078D0002DD01C781A78D1B2904286BF0131C9B23E
:1078E000002119709DF8070000F09AF84FF6FF7319
:1078F0009C4224D0DFF86090D9F800204FEAC40AF7
:1079000042F8348002EBC403A6B19DB1114B388814
:107910001B682A4604FB0030314603F00BF8D9F807
:107920000030534400209D8002B0BDE8F0874FF640
:10793000FF74D7E700209880F6E70920F4E70420D9
:10794000F2E700BF889C00208C9C00208A9C0020CD
:107950007C9C0020809C0020849C0020F8B5114C69
:10796000114D264622782B789A4200D1F8BD0F4857
:107970000F4A2378126807880E4802EBC30100689B
:1079800052F83320898803FB070090470A49227880
:107990000988D3B2914286BF0133DBB20023337032
:1079A000E0E700BF8C9C00207C9C0020889C00208D
:1079B000849C0020809C00208A9C00201FB5002110
:1079C000CDE9021001AA44F20100ADF80410FCF761
:1079D000D7FE05B05DF804FB70B5EFF3108672B604
:1079E0000C4A946801239CB993600B4B0B4DD3F860
:1079F000801029401160C3F88050D3F88410516082
:107A00004FF0FF32C3F88420047006B962B670BD2F
:107A10000370FAE72CCD002000E100E0FC06FFBD7A
:107A200010B5084B9A685AB150B9EFF3108172B68D
:107A3000054A1C6814605C685460986001B962B6BD
:107A400010BD00BF2CCD002000E100E010B50446C1
:107A500022B1108821448C4203D110BD4FF6FF7033
:107A6000F8E743BA14F8010B9BB24340C3F3031287
:107A7000534083EA03335A0102F4FF529BB283EA74
:107A80000200E8E7064B074A00201870064B1A6010
:107A90000822C3E90120C3E90300C3E905007047D8
:107AA0008D9C0020909C002070AF0020002070472B
:107AB00030B5F9B1124B5C6800220A60E4B1B0F550
:107AC000167F1BD8D8681D680130013CD860186942
:107AD0005C604FF4177404FB00540C60012101FA40
:107AE00000F49969013000F00700214318619961A1
:107AF000104630BD0E20FCE70420FAE70C20F8E722
:107B000070AF0020F0B51C4B996899B35D691E6891
:107B10006C1A04F0070422464FF4177707FB026C37
:107B2000604511D1012000FA02F59869684098611A
:107B300000205E68D3F818C04FF0010E7244002593
:107B40000E4402F007020AE0013202F007029542F9
:107B5000E4D11020EDE749B10139144601250EFAB0
:107B600004F414EA0C0FA6EB0107F4D00DB1C3E93D
:107B70000171F0BD0420FCE770AF0020064A1369D4
:107B80001268013B4FF4177103F0070301FB032355
:107B9000C3F858020020704770AF002030B5C0B164
:107BA000B9B10E4BDA68B2B1013ADA609A681D6871
:107BB00001329A605A694FF4177404FB025404604E
:107BC0000132D4F85802086002F007025A6100201E
:107BD00030BD0E20FCE70420FAE700BF70AF0020A4
:107BE0003FB40C49086890B10B4B1C687CB10B4A40
:107BF0001568CDE9025000238DF804300B60136046
:107C000004AB13E90700234604B030BC184704B0A6
:107C100030BC704794AF002098AF0020A4AF002084
:107C2000DC2810B509D0DD2810D0C02816D1FFF708
:107C3000D7FF0E4B0E4A1A6010BD0E4A0E4B196844
:107C40001368581C1060C022CA54F2E7094A0A4B54
:107C500019681368581C1060DB22F5E7064B054ACB
:107C6000196813685C1CC8541460E2E7488400205B
:107C7000917C0F0094AF0020A4AF0020C02802BF69
:107C8000014B024A1A60704748840020917C0F0023
:107C9000C02810B409D0DB280BD0094B094A196859
:107CA00013685C1CC854146006E05DF8044BFFF7D1
:107CB00097BF054B054A1A605DF8044B704700BF3B
:107CC000A4AF002094AF002048840020217C0F0046
:107CD00007B501228DF807000DF10701002002F021
:107CE000CFF800280CBF0420002003B05DF804FB8F
:107CF00010B5064A064C12682368D05CFFF7E8FF0F
:107D000010B923680133236010BD00BFA8AF002065
:107D10009CAF002008B5C020FFF7DAFF28B9034B5D
:107D20001B6813B9024B034A1A6008BD9CAF0020C0
:107D30004C840020F17C0F0008B5DB20FFF7C8FF62
:107D400010B9024B024A1A6008BD00BF4C840020E3
:107D5000557D0F0010B50C4A0C4C12682368D35C9B
:107D6000C02B03D0DB2B0DD0042010BDDC20FFF78F
:107D7000AFFF0028F9D12368054A01332360054B82
:107D80001A60F2E7DD20F2E7A8AF00209CAF0020E8
:107D9000F17C0F004C8400207FB5164C164D174E19
:107DA000002002F04FF818B322689AB129683368AE
:107DB00099420FD2012201A9002002F04DF810B91A
:107DC0004FF0FF3001E09DF804000D4BC0B21B687E
:107DD0009847E5E70B4B1B6853B10292064A022114
:107DE000126803928DF8041004AA12E9070098475C
:107DF00004B070BDA4AF002094AF002090AF00206D
:107E00004884002098AF0020014B18600020704784
:107E100098AF0020034B1A780AB901221A7000208B
:107E2000704700BF8CAF0020014B002018707047D6
:107E30008CAF00202DE9F04F85B000284FD0294F9E
:107E40003B78012B07D0022B14BF082404242046C2
:107E500005B0BDE8F08F244D244A254E254CDFF8AF
:107E6000A0A0DFF8A0B0116000232B6002233B70BC
:107E7000214B30602360914698462A68D9F800303B
:107E80009A4215D3C4F80080FFF744FF044608BBAC
:107E90001A4B1B6801223A70E3B18DF80420326856
:107EA00002922A68039204AA12E907009847CEE7D3
:107EB00033682A689A5CC02A03D02A689B5CDB2B53
:107EC00004D12368534508BFC4F800B0236898471D
:107ED000042801D10024BAE71128CED1FAE71024F2
:107EE000B5E700BF8CAF00209CAF0020A0AF002002
:107EF000A8AF00204C840020157D0F0098AF002013
:107F0000F17C0F00397D0F00054B064A1860064BC7
:107F10001960064B00201860054B1A60704700BFBF
:107F2000A4AF00207D7C0F0090AF002094AF002014
:107F300048840020064B07481B68DB00DBB20022A8
:107F4000037004215B4242708270C370FFF772BFFE
:107F5000D4AF0020ACAF002070B52C4C2C4E0246A4
:107F600025462378012B14D0022B21D0002B4CD195
:107F7000002A4AD12748FFF757FC08B1FFF71EFD3A
:107F8000254B1B68002B40D0244ABDE87040107878
:107F90001847012A39D13168214B06311868FFF79B
:107FA00049FF08B1FFF70AFD02232B700022D8E732
:107FB000022A17D0032A0CD03ABB1A4B15481A6074
:107FC00041F67F21FFF7E8FBF8B1BDE87040FFF70D
:107FD000F5BC154A1368013303F00703136000234F
:107FE0002370E3E70F4A1368052B0AD001331360AF
:107FF000074B19680A4BBDE8704018680631FFF757
:1080000019BF064B01221A70E9E770BDF8AF0020D6
:10801000ECAF0020B0AF0020E8AF0020F0AF0020B0
:1080200000B00020F4AF0020D8AF0020F0B585B03C
:1080300004AB03E907009DF80400032878D8DFE8C3
:1080400000F00802A7AA012005B0BDE8F040FFF744
:1080500083BF039E564C032E40F28680029D6B78B0
:1080600013F00F0269D00E2A7ED1042E59D02A783F
:10807000500656D5110654D51A44AB781A44EB78FD
:108080001A4412F0FF024CD1B71E39462846FFF7BA
:10809000DDFCEB195A78EB5D43EA0223984240D1AC
:1080A00044492A780B6802F00702D8B282422BD1E9
:1080B000013303F007030B60FFF73CFF3E4B012247
:1080C00030461A70FFF75AFD08B1FFF777FC3849C0
:1080D0004FF41670FFF7ECFC002862D0042802D0A1
:1080E0000020FFF76BFC35480521FFF70DFF08B1B5
:1080F000FFF764FC324B1B68002B56D04FF000009A
:1081000005B0BDE8F040184720684FF41671FFF73E
:10811000FBFE08B1FFF752FC05B0BDE8F040FFF7E9
:1081200009BF20684FF41671FFF7EEFE00283CD01F
:1081300005B0BDE8F040FFF741BC2978AA780B44B0
:108140001344EA78134413F0FF030DD11D4A12685B
:108150000132C1F3C20102F00702914204D11A4A6E
:1081600003201370FFF7F8FE25681DB14FF4167158
:108170002846D9E70E494FF41670FFF799FC60B115
:10818000042802D02846FFF719FC0C480521CBE74C
:108190000A480521C8E70320CAE720684FF4167192
:1081A000C2E720684FF416719FE705B0F0BD00BF2D
:1081B000FCAF0020D4AF0020D0AF0020DCAF002007
:1081C000E4AF0020D8AF0020F0AF00200220FFF77E
:1081D000C3BE0000074B10B5044618600648FFF701
:1081E00013FE08B1FFF7EAFB002C0CBF0E200020A5
:1081F00010BD00BFE4AF00202D800F00184A1948C1
:10820000002310B51360184A1360184A1360184A07
:108210001370184A1370184B184A01211960184B33
:108220001960184B1970FFF7A5FA08B1032010BDAB
:10823000FFF728FC0028FAD1FFF7ECFD0028F6D163
:10824000114C4FF416702146FFF732FC0028EDD197
:1082500020684FF41671BDE81040FFF755BE00BF0F
:1082600000B0002008B60F00ECAF0020F4AF0020F3
:10827000D0AF0020F8AF0020D4AF0020CD810F0098
:10828000D8AF0020F0AF0020FCAF00200C4A08B5AA
:10829000002313600B4A1360FFF708FC08B1FFF7D7
:1082A0008DFBFFF7C1FD08B1FFF788FB0648FFF71C
:1082B000BBFA042802D10020FFF780FB002008BD94
:1082C000E8AF0020E4AF0020B0AF002037B50D4686
:1082D000044698B191B10A4B19780022019259B124
:1082E00001A91A70FFF75AFC019B063B2B802368FB
:1082F0000433236003B030BD0420FBE70E20F9E710
:10830000D0AF00200438FFF7FDBB18DF7047000036
:10831000F0B51D46154B87B018680F4659681B7A93
:1083200003AC03C42370124B18685968114B0093B7
:1083300001AC03C403A8164602F053FB03A902468E
:10834000384602F0F7FA01A802F04BFB01A90246F9
:10835000304602F0EFFA684602F043FB69460246F7
:10836000284602F0E7FA07B0F0BD00BF0CB60F00D8
:1083700015B60F00312E30000120704710B51C4695
:108380000B781E2B0AD000232022052101F09AFF32
:108390004FF6FF70A04228BF204610BD0020F9E72D
:1083A000F8B5069F14460D463A46002118461E466B
:1083B000FBF7B4FF6CB10A4B1B68DB0700D500BEAE
:1083C0004FF0FF300AE0284600F0A6F9013504F529
:1083D0000074BC4206EB0401F5D32046F8BD00BF93
:1083E000F0ED00E0F8B50A4F0D461E460024069B4E
:1083F0009C4206EB040101D32046F8BD3A462846CC
:1084000000F060FA0028F7D0013504F50074EEE7BB
:1084100004B0002030B5284C227A8DB09AB107AC58
:10842000142200212046FBF779FF06250B9B8DF8CF
:108430001C50009394E80F00FCF7D6FF0620FCF7D1
:1084400003FD0DB030BD2368002BFAD01B4B19780B
:1084500019B105201A70FCF7F7FCD4E900329A42F2
:10846000EFD307AD142200212846FBF757FF637AAC
:10847000F3B106234FF420424FF474214FF423202C
:108480008DF81C3002F048FA68B11022002103A8D0
:10849000FBF744FF4FF423224FF4205303A8CDE908
:1084A0000423FFF732FF0B9B009395E80F00C3E70F
:1084B0008DF81C30F7E700BF04B000205084002086
:1084C000024B0B604FF400731380704709010100E9
:1084D000012070474DDF70474EDF70474FDF704718
:1084E00050DF704712DF7047002000F075BC0000BD
:1084F0001FB5244B402283F8272300238DF8073033
:1085000043F2040304461A681F4B9A4227D10DF127
:108510000700FFF7E7FF9DF8073003B30120FFF7DF
:10852000DBFF0120FFF7D6FF0120FFF7D7FF02A8EE
:10853000FFF7D6FF029BDA0702D5002000F088FD86
:10854000029B9B0702D5022000F082FD204600F02E
:108550003DF800F085F802F0A5F904B010BD002345
:1085600001A88DF80430FCF7BBFC084B039303A86B
:10857000FCF7DEFCFCF7E2FC4FF08043D3F8383424
:108580000293D7E700E100E0DBE5B15151900F0025
:10859000012000F05DBD0120FCF756BC0220FCF775
:1085A00053BC00000048704751840020044B054A2A
:1085B0001878054B002814BF10461846704700BFB6
:1085C00020B2002097B60F0035B60F00084B187088
:1085D00028B1084B6FF04C029A720022DA724FF009
:1085E000805305495A6E05481B6E02F0CBB900BF97
:1085F00020B20020518400201DB60F00A4B200203C
:1086000010B568B9134B14481968022202F092F9A8
:108610000123013311485B0043F44073038010BD14
:10862000052814D80B4B53F82040204602F0D9F906
:10863000C3B21F2B28BF1F23084A2046E1188842D7
:1086400002F10202E5D010F8014B1480F7E7002098
:10865000E5E700BF6484002024B2002022B200209D
:10866000F7B51F491F481F4F02F0ACF943F204034E
:108670001A681D4B9A422DD14FF440531B78102B92
:1086800025D943F21002142B156821D943F21403A3
:108690001C68144802F0A5F94FF47A721349B4FB30
:1086A000F2F602FB1646B4FBF1F3019601FB13410F
:1086B0003844B1FBF2F12A4600910D4902F062F90B
:1086C0000C49084803B0BDE8F04002F07BB9002532
:1086D0000024DEE70849384602F074F9F0E700BFED
:1086E000E2B60F007C840020DBE5B15140420F0070
:1086F000EFB60F0016B70F000AB70F0010B5002332
:10870000934200DB10BD0C781CB10131C45401331D
:10871000F6E72024FAE700002DE9F3410C46054670
:108720004FF4007200212046FBF7F8FD6DB95E4959
:108730003E22204602F0FEF8552384F8FE31AA239B
:1087400084F8FF3102B0BDE8F081B5F5017F2DD886
:10875000691EB1F5817F24BF6FF4817805EB0801B4
:10876000C9B10B02C1EBC15103F5807004EB412488
:1087700040F6C3251A1FB2F52C6F03F1010206D291
:10878000AB4214BF91B24FF6FF7124F81310904220
:108790001346EFD1D6E7F823237004F109022346EC
:1087A000FF2003F8010F9342FBD1DAE7B5F5027F12
:1087B0003BD86FF4017C65443DB920463B490B2210
:1087C000FFF79CFF2823E372203439492E014FF034
:1087D000640801EB05250027022EB3D80B22294699
:1087E0002046FFF78BFF522323206FF040026FF0EB
:1087F0006E016374E3746376B31C84F80D80A07318
:10880000E1732274A27427756775A075E1752276ED
:108810006383E86830B102F0E4F8E06101362034A7
:108820001035D9E74FF4AC10F7E7224B9D4289D8B9
:108830006FF40277EA19012A0FD81D4B03EB0213DC
:10884000D9680191084602F0CCF801990246204609
:1088500002B0BDE8F04102F06DB86FF4FD76A919E1
:108860000902B1F5801FBFF46DAF134B236003F114
:10887000144303F52C1303F6023363600F4BC4F863
:10888000FC314FF42C63A3614FF40053A5F20B2588
:108890004FF48072A3600A4B6561E1602261E3617D
:1088A00004F12000D4E700BF2AB70F0055B70F002E
:1088B000CCB70F00080101005546320A306FB10AEB
:1088C000B3009A23F7B5654B14460A689A420D46E1
:1088D00039D103F114434A6803F52C1303F602332C
:1088E0009A4230D1D1F8FC215D4B9A422BD18B6852
:1088F00023F4FF5323F01E039B049B0CB3F5005F8E
:1089000021D10B69B3F5807F1DD1C86810F0FF0637
:1089100019D1CB69534A934205D0534A934215D09B
:10892000524A93420FD1A0F58053B3F52C2F07D2B2
:1089300001234FF4807205F12001FBF7D7FE22E0FE
:10894000B0F5805F1FD34FF0FF3021E00127677241
:10895000CB68B3F1102F1DD104223431684601F0E9
:10896000E9FF042205F138010DEB020001F0E2FFFE
:10897000009BB3F5742F03D1019BB3F57E2F01D07B
:108980002772E0E7A772AB69002B37D14FF4007074
:1089900003B0F0BDA3F57422B2F5204F28D2E27ADD
:1089A00001F12007DAB9324A934218D32B69B34256
:1089B00015D90422B919684601F0BCFF009BD02BE1
:1089C00014D10422311D0DEB0200394401F0B2FF35
:1089D000264B019A9A424FF001030DD1E372E868E9
:1089E0002A6901233946A0F5A220A6E70836DDE76B
:1089F000B3F5805FC7D301232372A4E722689342B3
:108A000007D041F263018B4200D80AB14FF0FF3327
:108A100023606B6941F263029342B7D803F0070207
:108A200004EBD303012191401A7B1142C8B204D157
:108A30006168024301311A736160D4E900329A42DD
:108A4000A4D30120FBF734FE637A002B9ED0A37AD7
:108A5000002B9BD10123237298E700BF5546320AB1
:108A6000306FB10A4028A5AD3C8263D6B3009A238B
:108A700000D80F00064B1868082802D104331B6881
:108A800023B9A0F10D0358425841704701207047A7
:108A90003001001042DF704743DF704744DF70470A
:108AA00012DF7047064B93F8C0202AB9054B1B68AC
:108AB000DB0704D500BE7047002283F8C020704752
:108AC000B8B20020F0ED00E007B543F20403002047
:108AD0001A68084B9A420AD18DF807000DF1070079
:108AE000FFF7DEFF9DF80700003818BF012003B034
:108AF0005DF804FBDBE5B15107B5FFF7E5FF48B1D1
:108B000001A8FFF7CBFF0198003818BF012003B080
:108B10005DF804FB4FF08043D3F80C0400F0011023
:108B2000A0F1011358425841F1E700000D4B93F8B2
:108B3000C020014662B10C4A5268C2F308021AB161
:108B40000A48012200F030BD93F8C020002AFBD172
:108B5000012283F8C0200A60BFF36F8FBFF34F8FED
:108B6000704700BFB8B2002000ED00E02D8B0F0071
:108B7000F8B5104D104E00F59473182455F82330B5
:108B80004443142202FB0052DDB20C4B3159C2F8AF
:108B9000001703EB8000C2F80457FFF7C7FF3359F3
:108BA00037192B443351FB8815FA83F39BB2FB80B2
:108BB000F8BD00BF00700240B8B20020287002402B
:108BC00010B4104B182101FB00314A8A0B8ACC6883
:108BD0009B1A0A7D9BB2934228BF1346142242433C
:108BE00002F1804202F51C32C2F80046C2F8043697
:108BF0002344CB60044B5DF8044B03EB8000FFF78C
:108C000095BF00BFB8B2002004700240024B0122A1
:108C1000C3F80425704700BF007002407047000091
:108C2000014B80225A60704700E100E0024B802235
:108C3000C3F88420704700BF00E100E0074BD3F881
:108C40000014D3F800240A43C3F800240022C3F818
:108C500058214FF48002C3F804237047007002408B
:108C600010B58878097900F07F0318240C22C00918
:108C70005C4302FB0044114A224411720122104954
:108C800002FA03F478B90C3302FA03F3C1F804339F
:108C9000D1F814352343C1F81435BFF36F8FBFF3F8
:108CA0004F8F012010BD023302FA03F3C1F80433E1
:108CB000D1F810352343C1F81035EEE7B8B20020E3
:108CC00000700240F7B501F07F00182606FB00F7A0
:108CD0001C460D461D4BC9090C2606FB01769F1943
:108CE0009A510022BC80FA80B0B9ACB9184AD2F8C7
:108CF0008024C2F3C01291420ED01648FFF716FF2F
:108D0000FFF7D0FE0094234622462946204600F075
:108D100001FC012003B0F0BDA9B9182202FB003309
:108D20005B7A13B1FFF724FFF3E7094B30B9012257
:108D3000DA64BFF36F8FBFF34F8FEAE700F59470EB
:108D400043F82010F5E7FFF73BFFE2E7B8B2002059
:108D5000007002405070024011F07F0F064B0BBFB5
:108D6000012241F480715A65C3F81815BFF36F8F63
:108D7000BFF34F8F704700BF007002404B060AD010
:108D8000054BC3F8181541F48071C3F80C15BFF3F7
:108D90006F8FBFF34F8F70470070024010B50022F5
:108DA0001146930003F1804303F51C330132082A76
:108DB00059609962F5D1064B064C5962C4229964F8
:108DC00020460021FBF7AAFA40232375237210BD29
:108DD00000700240B8B200202DE9F04F974B984A3E
:108DE000D3F80003002385B01C4601251E4605FA72
:108DF00003F1084209D052F8237037B10C4342F80E
:108E00002360BFF36F8FBFF34F8F0133192BEED168
:108E1000E10706D5FFF7C2FF01221146002000F04E
:108E200053FBA20204D501220321002000F04CFBD9
:108E3000630217D5814ED6F8005405F44073EF0550
:108E4000C6F8003407D501220421002000F03CFBC5
:108E50000123C6F82C35AD0504D5012205210020DB
:108E600000F032FB774B23400BB1FFF71BFE2002D3
:108E70002BD5724BD3F88014C9B28DF80810D3F8F3
:108E80008424D2B28DF80920D3F888048DF80A0022
:108E9000D3F88C048DF80B00D3F890048DF80C00F7
:108EA000D3F894048DF80D00D3F898048DF80E00D3
:108EB000D3F89C348DF80F30490601D1052A04D02F
:108EC000012202A9002000F00FFB5F4EDFF86CA129
:108ED000B046002537464FF001094FF0140B05F15D
:108EE0000C0309FA03F32342E9B21BD00BFB05A3E1
:108EF0000020D3F80827182303FB0573D2B2587259
:108F000098F808C094457AD1DB88B8F804209BB261
:108F10009A4274D9002D6DD1CAF84C90BFF36F8F6F
:108F2000BFF34F8F0135082D08F11808D7D1474BF3
:108F30002340002B5BD0414BD3F86C84C3F86C8486
:108F4000BFF36F8FBFF34F8F14F4806407D0D3F853
:108F50008044D3F880341B06C4F3C0145ED54FF0B0
:108F6000000ADFF8E49000254FF0010B0BFA05F33F
:108F700013EA080FE8B201D1B5B9ACB12F4B1422F6
:108F800002FB0533D3F80416182303FB05735A8A32
:108F900011FA82F292B25A825A8AB9F8101092B239
:108FA00091423ED9FFF70CFE0135082D09F1180951
:108FB000DCD1002401254FF0180904F1100305FA53
:108FC00003F313EA080FE0B203D15CB9BAF1000F62
:108FD00008D009FB0472B188D3889BB299422BD97F
:108FE000FFF7C6FD0134082C06F11806E5D105B0DF
:108FF000BDE8F08F05F594734AF823008EE7182337
:1090000003FB0573DA88A8F80420DA88CDF800900D
:10901000002392B2184600F07DFA83E74FF0010A70
:109020009FE75A8ACDF800B0002340F0800192B249
:10903000184600F06FFAB7E75572D3E700700240A8
:1090400000710240FCFB1F00B8B2002000040001C8
:10905000012813B5044600F0A18002284DD1644BCD
:10906000D3F800241205FBD54FF40062C3F80024A6
:10907000BFF36F8FBFF34F8F5E4B1B68082B0AD176
:109080005D4B5E4A1868002840F0828049F27531D5
:10909000196010601960FFF7EDFC48B1564B584A53
:1090A0001868002877D149F275311960106019608D
:1090B000504B1B68082B09D1524B40F2E3721A60E7
:1090C00040225A60BFF36F8FBFF34F8F484C4E4919
:1090D0008022C4F81C25C4F804134C49C1F884212B
:1090E0004A60FFF709FD0028FBD00123C4F80435CE
:1090F000BFF36F8FBFF34F8F48E0002846D13C4B42
:10910000D3F80025002A41D14FF40062C3F80024AF
:10911000BFF36F8FBFF34F8FFFF7ACFC48B1364BF7
:10912000374A1868032128BB49F27530186011606E
:109130001860304B1B68082B09D12F4B2F4A186839
:10914000C021C8B949F27530186011601860284B09
:109150000124C3F80045BFF36F8FBFF34F8FFFF7B4
:10916000CBFC98B9FFF7B0FC40B102B0BDE81040AD
:10917000FFF790BC1160DCE71160E8E7244B186052
:109180001B680193019B4FF080431C6002B010BD2F
:10919000002313607FE70023136089E7144BD3F8A3
:1091A0000025002AF2D00022C3F80425BFF36F8FF8
:1091B000BFF34F8F15498020C1F88400D3F8001306
:1091C000C3F80813C3F80025BFF36F8FBFF34F8FA9
:1091D000FFF77AFC48B1FFF75FFC01220221002073
:1091E00002B0BDE8104000F06FB90A4B1C60F4E714
:1091F000007002403001001000EC064014EC064004
:1092000014ED0640007802400514800100E100E002
:10921000000100400400004010B58389C288044664
:1092200000689BB202FB030001F084FBA389A188C4
:109230009BB20133B3FBF1F201FB12339BB2A3816A
:1092400063899BB2994215BF6389A38901339BB29D
:1092500016BF9BB2E381638110BDC3809DF80030CF
:10926000037200234381016083818280C3810120D6
:10927000704710B50446084663899BB2BBB1E389C9
:10928000E28821689BB202FB031101F053FBE389E2
:10929000A1889BB20133B3FBF1F201FB12339BB205
:1092A000E3816389013B9BB26381012010BD1846B5
:1092B000FCE7F8B54589ADB204460E4655B1438981
:1092C0009BB2934236BF45891546ADB20027BBB26B
:1092D0009D4201D82846F8BDE389E28821689BB207
:1092E00002FB0311304601F025FBE389A1889BB204
:1092F0000133B3FBF1F201FB12339BB2E3816389CB
:10930000013B9BB26381E38801371E44DFE708B568
:10931000438982889BB29A4201D1037A13B1FFF745
:109320007BFF0123184608BDF8B505460E461446D6
:1093300062B1037A33B9428983889B1A9BB29C42FB
:1093400028BF1C460027BBB29C4201D82046F8BD6E
:1093500031462846FFF760FFEB8801371E44F2E7ED
:10936000002343818381C3810120704738B50E4DAE
:109370000446312200212846FAF7D0FF1022FF21AF
:10938000681CFAF7CBFF1022FF2105F11100FAF754
:10939000C5FF00F0A5FC204600F0E4FD2046BDE836
:1093A000384000F0A3BF00BF7CB3002073B5054672
:1093B00014463AB90378012B04D110460191FFF706
:1093C00035FC0199281DFFF7A2FF06462CB92B7822
:1093D000012B02D12046FFF723FC26B9034B1B6863
:1093E000DB0700D500BE304602B070BDF0ED00E0F6
:1093F000024B1878C0F38000704700BF7CB3002098
:10940000024B1878C0F3C000704700BF7CB3002047
:1094100010B50E4C0E4831220021FAF77FFF201DB7
:10942000FFF79EFF0B4B1C6000F072FD00F056FF33
:109430000020FFF7F3FB084B13B10020FFF7E6FB1A
:109440000020FFF7EDFB012010BD00BFFC850020D0
:109450007CB30020B0B300200D8C0F004378023B9A
:109460000A46032B14D8DFE803F002291820144B16
:1094700019786FF30001197019786FF341011970B1
:1094800019786FF38201197019786FF3C30119709D
:109490000C4B01461868FFF789BF094B1978C907BB
:1094A0000CD5197841F00801F1E705490B78DB0785
:1094B00004D50B786FF3C3030B70E9E7704700BF67
:1094C0007CB30020B0B300201FB50023CDE90133E9
:1094D0008DF804008DF8051001A811460393FFF7DD
:1094E000BDFF05B05DF804FB1FB51446002308223C
:1094F000CDE9013303938DF8040006230DEB020040
:109500008DF8053001F016FA214601A8FFF7A6FFF5
:1095100004B010BD1FB50024CDE901448DF804004E
:1095200007208DF805008DF8081001A89DF8181087
:1095300003928DF80930FFF791FF04B010BD0000D1
:109540002DE9F047DDE9085681460C4690469A46DB
:109550000027B84501DC01200CE06378052B04D11D
:10956000E37803F00303534508D00E4B1B68DA077A
:1095700002D40020BDE8F08700BEFAE72146484645
:10958000FFF76EFB28B9074B1B68DB07F1D500BE60
:10959000F0E7A378DA0914BF33702B702378013712
:1095A0001C44D6E7F0ED00E01FB50023CDE9020131
:1095B00001931146082301A88DF80530FFF74EFFEF
:1095C00005B05DF804FBFFF74BBB000070B50C4D18
:1095D00001F07F0605EB460505EBD11420346578D4
:1095E00045F001056570FFF76DFB40B9637860F3E6
:1095F00000036370034B1B68DB0700D500BE70BD22
:109600007CB30020F0ED00E0054B01F07F0203EB9E
:10961000420303EBD11191F8210000F001007047E3
:109620007CB3002010B50C46FFF796FB094B04F005
:109630007F0103EB410303EBD41191F8213043F098
:10964000020381F8213091F8213043F0010381F8C1
:10965000213010BD7CB3002010B50C46FFF78EFB07
:10966000094B04F07F0103EB410303EBD41191F8A4
:1096700021306FF3410381F8213091F821306FF3ED
:10968000000381F8213010BD7CB300202DE9F04F9C
:1096900085B001F01DF9002800F06082B94FBA4C86
:1096A000BA4B1D682B78012B02D10020FFF7BEFAC0
:1096B00001A9281DFFF7DDFD2B78012B064602D1FD
:1096C0000020FFF7ADFA002E00F048829DF805302B
:1096D000013B072B00F2698201A252F823F000BF80
:1096E00001970F000B970F00A1960F007B9B0F00B7
:1096F0008F9B0F001F970F001F9B0F009D9B0F005C
:109700009DF80400FFF732FECAE79DF80400FFF75A
:109710002DFE9F4B002BC3D0FEF740FFC0E7237800
:109720009DF8045043F001030020237000F0E0FA9C
:109730009DF8088008F06000602805D13B68D907D3
:1097400040F1028100BEFFE040280FD1914B002B79
:1097500000F0FA80904808B100F0CAFA02A9284641
:10976000AFF300800646002E9AD1EDE008F01F0806
:10977000B8F1010F00F05681B8F1020F00F07481CA
:10978000B8F1000FDAD10028D8D19DF80930092BA3
:10979000D4D801A252F823F00B9A0F00FB990F00C6
:1097A0003D970F00EB990F003D970F00C1970F00F9
:1097B00031990F003D970F00DB970F00F5970F00D1
:1097C00002A800F09BFA9DF80A102846FFF736FA27
:1097D000237843F00203237062E72378C3F3800306
:1097E0008DF802300DF10202012302A9284600F093
:1097F0003FFA55E723789DF80A905E07C3F3800B84
:1098000023D4B9F1000F20D009F1FF30C0B2FEF728
:10981000CDFE10B14378022B04D03B68D8078DD51C
:1098200000BE8BE72278C37922F0600203F0600368
:1098300013432370B0F8028000F109068044B0455C
:1098400011D8564B0BB1FEF7A6FEB9F100092378EB
:1098500018BF4FF0010969F3820302A9284623705B
:1098600000F0EEF91CE773780B2B03BF3378B24698
:10987000F6184FF0000A7378042BCED10DF10202D6
:1098800031462846ADF802B000F080FB58B9ADF87B
:1098900002000DF102023146284600F02FFD00289B
:1098A000BBD0012000E00020B37823445A78FF2A7F
:1098B000B3D15870BAF1000F1FD09AF80220B378D4
:1098C0009A42AAD19AF8042073799A42A5D19AF8BB
:1098D0000520B3799A42A0D19AF80620F3799A42EA
:1098E0009BD1012305E0B178E2180A44013350709E
:1098F000DBB29AF803209A42F5D8BDF802C0BCF159
:10990000080F8AD9324600235178052908D192F8E8
:1099100002E00EF07F0104EB410101EBDE1148741F
:1099200011780B449BB29C450A44EDD8664486E707
:10993000BDF80A00030A032B9846C0B249D00ED8DE
:10994000012B2FD0022B39D09DF804000021FFF706
:1099500003FA9DF804008021FFF7FEF9A0E60F2B23
:10996000F2D10F4B002BEFD0AFF30080022206465E
:1099700081180DEB020000F0DDFFBDF80230324629
:1099800014E000BFF0ED00E07CB30020B0B3002095
:109990009D850F00000000000000000097850F006B
:1099A00000000000FEF7FEFD1223024602A9284631
:1099B00000F05EF900287FF473AEC5E7FEF7F6FD10
:1099C000064600283FF4BAAE811C42460DF1020063
:1099D000D1E7EE28B8D0BDF80C10FEF711FE024614
:1099E00000283FF4ABAE0378E0E7BDF80A30012B66
:1099F000AAD1237843F010032FE7BDF80A30012BDA
:109A0000A2D123786FF3041327E72378C3F38012DE
:109A1000DB0803F002031343ADF8023002230DEB21
:109A20000302E2E69DF80C300F2B8DD823445E78BC
:109A3000012E89D8604B1C2202FB0636306900F0EB
:109A400057F9F36802A92846984700287FF428AE02
:109A50009DF8083013F060037FF476AF9DF809207D
:109A60000A2A7FF471AFBBE69DF80C1011F0780361
:109A70007FF464AE01F07F0204EB420202EBD112EC
:109A800092F81190002848D19DF80930012B31D06F
:109A9000032B3AD0002B7FF451AE92F82130C3F360
:109AA0004003ADF802300DF10202434602A92846F8
:109AB00000F0DEF8B9F1FF0F13D0B9F1010F3FF656
:109AC0003DAE3D4B1C2202FB0939D9F8100000F0D5
:109AD0000FF9D9F80C3002A928469847002818BF7A
